{
  "contractName": "DalatMilk",
  "abi": [
    {
      "constant": false,
      "inputs": [
        {
          "name": "new_address",
          "type": "address"
        }
      ],
      "name": "upgrade",
      "outputs": [],
      "payable": false,
      "stateMutability": "nonpayable",
      "type": "function",
      "signature": "0x0900f010"
    },
    {
      "constant": true,
      "inputs": [
        {
          "name": "",
          "type": "address"
        }
      ],
      "name": "info",
      "outputs": [
        {
          "name": "name",
          "type": "string"
        },
        {
          "name": "location",
          "type": "string"
        },
        {
          "name": "secret",
          "type": "bytes32"
        },
        {
          "name": "position",
          "type": "uint8"
        },
        {
          "name": "long",
          "type": "uint16"
        },
        {
          "name": "lat",
          "type": "uint16"
        }
      ],
      "payable": false,
      "stateMutability": "view",
      "type": "function",
      "signature": "0x0aae7a6b"
    },
    {
      "constant": true,
      "inputs": [],
      "name": "last_completed_migration",
      "outputs": [
        {
          "name": "",
          "type": "uint256"
        }
      ],
      "payable": false,
      "stateMutability": "view",
      "type": "function",
      "signature": "0x445df0ac"
    },
    {
      "constant": true,
      "inputs": [],
      "name": "owner",
      "outputs": [
        {
          "name": "",
          "type": "address"
        }
      ],
      "payable": false,
      "stateMutability": "view",
      "type": "function",
      "signature": "0x8da5cb5b"
    },
    {
      "constant": true,
      "inputs": [],
      "name": "checkApp",
      "outputs": [
        {
          "name": "res",
          "type": "bool"
        }
      ],
      "payable": false,
      "stateMutability": "view",
      "type": "function",
      "signature": "0xb9d5ca38"
    },
    {
      "constant": false,
      "inputs": [
        {
          "name": "completed",
          "type": "uint256"
        }
      ],
      "name": "setCompleted",
      "outputs": [],
      "payable": false,
      "stateMutability": "nonpayable",
      "type": "function",
      "signature": "0xfdacd576"
    },
    {
      "constant": false,
      "inputs": [
        {
          "name": "_secret",
          "type": "string"
        }
      ],
      "name": "createSecret",
      "outputs": [
        {
          "name": "",
          "type": "bool"
        }
      ],
      "payable": false,
      "stateMutability": "nonpayable",
      "type": "function",
      "signature": "0x1969f290"
    },
    {
      "constant": true,
      "inputs": [
        {
          "name": "_secret",
          "type": "string"
        }
      ],
      "name": "checkSecret",
      "outputs": [
        {
          "name": "",
          "type": "bool"
        }
      ],
      "payable": false,
      "stateMutability": "view",
      "type": "function",
      "signature": "0x60ea95f1"
    }
  ],
  "bytecode": "0x6080604052336000806101000a81548173ffffffffffffffffffffffffffffffffffffffff021916908373ffffffffffffffffffffffffffffffffffffffff160217905550610bf0806100536000396000f3fe60806040526004361061008e576000357c0100000000000000000000000000000000000000000000000000000000900463ffffffff1680630900f010146100935780630aae7a6b146100e45780631969f2901461024c578063445df0ac146102ea57806360ea95f1146103155780638da5cb5b146103f5578063b9d5ca381461044c578063fdacd5761461047b575b600080fd5b34801561009f57600080fd5b506100e2600480360360208110156100b657600080fd5b81019080803573ffffffffffffffffffffffffffffffffffffffff1690602001909291905050506104b6565b005b3480156100f057600080fd5b506101336004803603602081101561010757600080fd5b81019080803573ffffffffffffffffffffffffffffffffffffffff16906020019092919050505061059e565b6040518080602001806020018781526020018660ff1660ff1681526020018561ffff1661ffff1681526020018461ffff1661ffff168152602001838103835289818151815260200191508051906020019080838360005b838110156101a557808201518184015260208101905061018a565b50505050905090810190601f1680156101d25780820380516001836020036101000a031916815260200191505b50838103825288818151815260200191508051906020019080838360005b8381101561020b5780820151818401526020810190506101f0565b50505050905090810190601f1680156102385780820380516001836020036101000a031916815260200191505b509850505050505050505060405180910390f35b34801561025857600080fd5b506102d06004803603602081101561026f57600080fd5b810190808035906020019064010000000081111561028c57600080fd5b82018360208201111561029e57600080fd5b803590602001918460018302840111640100000000831117156102c057600080fd5b9091929391929390505050610733565b604051808215151515815260200191505060405180910390f35b3480156102f657600080fd5b506102ff61090d565b6040518082815260200191505060405180910390f35b34801561032157600080fd5b506103db6004803603602081101561033857600080fd5b810190808035906020019064010000000081111561035557600080fd5b82018360208201111561036757600080fd5b8035906020019184600183028401116401000000008311171561038957600080fd5b91908080601f016020809104026020016040519081016040528093929190818152602001838380828437600081840152601f19601f820116905080830192505050505050509192919290505050610913565b604051808215151515815260200191505060405180910390f35b34801561040157600080fd5b5061040a610a3b565b604051808273ffffffffffffffffffffffffffffffffffffffff1673ffffffffffffffffffffffffffffffffffffffff16815260200191505060405180910390f35b34801561045857600080fd5b50610461610a60565b604051808215151515815260200191505060405180910390f35b34801561048757600080fd5b506104b46004803603602081101561049e57600080fd5b8101908080359060200190929190505050610abf565b005b6000809054906101000a900473ffffffffffffffffffffffffffffffffffffffff1673ffffffffffffffffffffffffffffffffffffffff163373ffffffffffffffffffffffffffffffffffffffff16141561059b5760008190508073ffffffffffffffffffffffffffffffffffffffff1663fdacd5766001546040518263ffffffff167c010000000000000000000000000000000000000000000000000000000002815260040180828152602001915050600060405180830381600087803b15801561058157600080fd5b505af1158015610595573d6000803e3d6000fd5b50505050505b50565b6002602052806000526040600020600091509050806000018054600181600116156101000203166002900480601f01602080910402602001604051908101604052809291908181526020018280546001816001161561010002031660029004801561064a5780601f1061061f5761010080835404028352916020019161064a565b820191906000526020600020905b81548152906001019060200180831161062d57829003601f168201915b505050505090806001018054600181600116156101000203166002900480601f0160208091040260200160405190810160405280929190818152602001828054600181600116156101000203166002900480156106e85780601f106106bd576101008083540402835291602001916106e8565b820191906000526020600020905b8154815290600101906020018083116106cb57829003601f168201915b5050505050908060020154908060030160009054906101000a900460ff16908060030160019054906101000a900461ffff16908060030160039054906101000a900461ffff16905086565b60008060009054906101000a900473ffffffffffffffffffffffffffffffffffffffff1673ffffffffffffffffffffffffffffffffffffffff163373ffffffffffffffffffffffffffffffffffffffff1614156109075760c06040519081016040528060206040519081016040528060008152508152602001602060405190810160405280600081525081526020018484604051602001808383808284378083019250505092505050604051602081830303815290604052805190602001208152602001600060ff168152602001600061ffff168152602001600061ffff16815250600260003373ffffffffffffffffffffffffffffffffffffffff1673ffffffffffffffffffffffffffffffffffffffff1681526020019081526020016000206000820151816000019080519060200190610870929190610b1f565b50602082015181600101908051906020019061088d929190610b1f565b506040820151816002015560608201518160030160006101000a81548160ff021916908360ff16021790555060808201518160030160016101000a81548161ffff021916908361ffff16021790555060a08201518160030160036101000a81548161ffff021916908361ffff160217905550905050600190505b92915050565b60015481565b60008060009054906101000a900473ffffffffffffffffffffffffffffffffffffffff1673ffffffffffffffffffffffffffffffffffffffff163373ffffffffffffffffffffffffffffffffffffffff161415610a3657600260003373ffffffffffffffffffffffffffffffffffffffff1673ffffffffffffffffffffffffffffffffffffffff16815260200190815260200160002060020154826040516020018082805190602001908083835b6020831015156109e657805182526020820191506020810190506020830392506109c1565b6001836020036101000a038019825116818451168082178552505050505050905001915050604051602081830303815290604052805190602001201415610a305760019050610a35565b600090505b5b919050565b6000809054906101000a900473ffffffffffffffffffffffffffffffffffffffff1681565b60008060009054906101000a900473ffffffffffffffffffffffffffffffffffffffff1673ffffffffffffffffffffffffffffffffffffffff163373ffffffffffffffffffffffffffffffffffffffff161415610abc57600190505b90565b6000809054906101000a900473ffffffffffffffffffffffffffffffffffffffff1673ffffffffffffffffffffffffffffffffffffffff163373ffffffffffffffffffffffffffffffffffffffff161415610b1c57806001819055505b50565b828054600181600116156101000203166002900490600052602060002090601f016020900481019282601f10610b6057805160ff1916838001178555610b8e565b82800160010185558215610b8e579182015b82811115610b8d578251825591602001919060010190610b72565b5b509050610b9b9190610b9f565b5090565b610bc191905b80821115610bbd576000816000905550600101610ba5565b5090565b9056fea165627a7a7230582051e8b2b7d788dadf1a342abb367f71df587151be0c1ebf6b99ba47d5b4cd0f510029",
  "source": "pragma solidity >=0.4.21 <0.6.0;\r\n\r\nimport \"./Migrations.sol\";\r\n\r\ncontract DalatMilk is Migrations {\r\n\r\n\tstruct Info{\r\n\t\tstring name;\r\n\t\tstring location;\r\n\t\tbytes32 secret;\r\n\t\tuint8 position;\r\n\t\tuint16 long;\r\n\t\tuint16 lat;\r\n\t}\r\n\r\n\tmapping(address=>Info) public info;\r\n\t\r\n  \tfunction createSecret(string calldata _secret) external restricted returns (bool) {\r\n  \t    info[msg.sender] = Info('','',keccak256(abi.encodePacked(_secret)),0,0,0);\r\n  \t    return true;\r\n  \t}\r\n  \tfunction checkSecret(string memory _secret) public view restricted returns (bool) {\r\n  \t    if(keccak256(abi.encodePacked(_secret)) == info[msg.sender].secret)\r\n  \t    \treturn true;\r\n  \t    else\r\n  \t        return false;\r\n  \t}\r\n}",
  "sourcePath": "D:/blockchain/milkApp/appCore/contracts/DalatMilk.sol",
  "compiler": {
    "name": "solc",
    "version": "0.5.0+commit.1d4f565a.Emscripten.clang"
  },
  "schemaVersion": "3.0.1",
  "updatedAt": "2019-03-22T17:43:06.050Z",
  "devdoc": {
    "methods": {}
  },
  "userdoc": {
    "methods": {}
  }
}