{
  "contractName": "DalatMilk",
  "abi": [
    {
      "constant": true,
      "inputs": [],
      "name": "owner",
      "outputs": [
        {
          "name": "",
          "type": "address"
        }
      ],
      "payable": false,
      "stateMutability": "view",
      "type": "function",
      "signature": "0x8da5cb5b"
    },
    {
      "constant": true,
      "inputs": [],
      "name": "isOwner",
      "outputs": [
        {
          "name": "",
          "type": "bool"
        }
      ],
      "payable": false,
      "stateMutability": "view",
      "type": "function",
      "signature": "0x8f32d59b"
    },
    {
      "constant": true,
      "inputs": [],
      "name": "checkUser",
      "outputs": [
        {
          "name": "actor",
          "type": "uint8"
        }
      ],
      "payable": false,
      "stateMutability": "view",
      "type": "function",
      "signature": "0xc1562547"
    },
    {
      "constant": false,
      "inputs": [
        {
          "name": "secret",
          "type": "string"
        }
      ],
      "name": "updateSecret",
      "outputs": [],
      "payable": false,
      "stateMutability": "nonpayable",
      "type": "function",
      "signature": "0xcd486ad5"
    },
    {
      "constant": true,
      "inputs": [],
      "name": "secretDeploy",
      "outputs": [
        {
          "name": "res",
          "type": "bool"
        }
      ],
      "payable": false,
      "stateMutability": "view",
      "type": "function",
      "signature": "0x85599d5b"
    },
    {
      "constant": true,
      "inputs": [
        {
          "name": "_account",
          "type": "address"
        }
      ],
      "name": "getProfile",
      "outputs": [
        {
          "name": "",
          "type": "string"
        },
        {
          "name": "",
          "type": "string"
        },
        {
          "name": "",
          "type": "uint8"
        },
        {
          "name": "",
          "type": "uint32"
        }
      ],
      "payable": false,
      "stateMutability": "view",
      "type": "function",
      "signature": "0x0f53a470"
    },
    {
      "constant": true,
      "inputs": [
        {
          "name": "_key",
          "type": "string"
        }
      ],
      "name": "userLogin",
      "outputs": [
        {
          "name": "res",
          "type": "bool"
        }
      ],
      "payable": false,
      "stateMutability": "view",
      "type": "function",
      "signature": "0xb01f91bb"
    },
    {
      "constant": false,
      "inputs": [
        {
          "name": "userAdd",
          "type": "address"
        },
        {
          "name": "name",
          "type": "string"
        },
        {
          "name": "location",
          "type": "string"
        },
        {
          "name": "position",
          "type": "uint8"
        },
        {
          "name": "secret",
          "type": "string"
        }
      ],
      "name": "updateProfile",
      "outputs": [],
      "payable": false,
      "stateMutability": "nonpayable",
      "type": "function",
      "signature": "0xc0de420c"
    },
    {
      "constant": true,
      "inputs": [
        {
          "name": "_secret",
          "type": "string"
        }
      ],
      "name": "checkSecret",
      "outputs": [
        {
          "name": "",
          "type": "bool"
        }
      ],
      "payable": false,
      "stateMutability": "view",
      "type": "function",
      "signature": "0x60ea95f1"
    },
    {
      "constant": true,
      "inputs": [
        {
          "name": "_secret",
          "type": "string"
        }
      ],
      "name": "checkLogin",
      "outputs": [
        {
          "name": "",
          "type": "bool"
        }
      ],
      "payable": false,
      "stateMutability": "view",
      "type": "function",
      "signature": "0x4f045d65"
    }
  ],
  "bytecode": "0x6080604052336000806101000a81548173ffffffffffffffffffffffffffffffffffffffff021916908373ffffffffffffffffffffffffffffffffffffffff16021790555061130a806100536000396000f3fe6080604052600436106100a4576000357c0100000000000000000000000000000000000000000000000000000000900463ffffffff1680630f53a470146100a95780634f045d65146101ff57806360ea95f11461029d57806385599d5b1461033b5780638da5cb5b1461036a5780638f32d59b146103c1578063b01f91bb146103f0578063c0de420c1461048e578063c1562547146106b1578063cd486ad5146106e2575b600080fd5b3480156100b557600080fd5b506100f8600480360360208110156100cc57600080fd5b81019080803573ffffffffffffffffffffffffffffffffffffffff1690602001909291905050506107aa565b6040518080602001806020018560ff1660ff1681526020018463ffffffff1663ffffffff168152602001838103835287818151815260200191508051906020019080838360005b8381101561015a57808201518184015260208101905061013f565b50505050905090810190601f1680156101875780820380516001836020036101000a031916815260200191505b50838103825286818151815260200191508051906020019080838360005b838110156101c05780820151818401526020810190506101a5565b50505050905090810190601f1680156101ed5780820380516001836020036101000a031916815260200191505b50965050505050505060405180910390f35b34801561020b57600080fd5b506102836004803603602081101561022257600080fd5b810190808035906020019064010000000081111561023f57600080fd5b82018360208201111561025157600080fd5b8035906020019184600183028401116401000000008311171561027357600080fd5b9091929391929390505050610a03565b604051808215151515815260200191505060405180910390f35b3480156102a957600080fd5b50610321600480360360208110156102c057600080fd5b81019080803590602001906401000000008111156102dd57600080fd5b8201836020820111156102ef57600080fd5b8035906020019184600183028401116401000000008311171561031157600080fd5b9091929391929390505050610ae1565b604051808215151515815260200191505060405180910390f35b34801561034757600080fd5b50610350610bd9565b604051808215151515815260200191505060405180910390f35b34801561037657600080fd5b5061037f610c83565b604051808273ffffffffffffffffffffffffffffffffffffffff1673ffffffffffffffffffffffffffffffffffffffff16815260200191505060405180910390f35b3480156103cd57600080fd5b506103d6610cac565b604051808215151515815260200191505060405180910390f35b3480156103fc57600080fd5b506104746004803603602081101561041357600080fd5b810190808035906020019064010000000081111561043057600080fd5b82018360208201111561044257600080fd5b8035906020019184600183028401116401000000008311171561046457600080fd5b9091929391929390505050610d03565b604051808215151515815260200191505060405180910390f35b34801561049a57600080fd5b506106af600480360360a08110156104b157600080fd5b81019080803573ffffffffffffffffffffffffffffffffffffffff169060200190929190803590602001906401000000008111156104ee57600080fd5b82018360208201111561050057600080fd5b8035906020019184600183028401116401000000008311171561052257600080fd5b91908080601f016020809104026020016040519081016040528093929190818152602001838380828437600081840152601f19601f8201169050808301925050505050505091929192908035906020019064010000000081111561058557600080fd5b82018360208201111561059757600080fd5b803590602001918460018302840111640100000000831117156105b957600080fd5b91908080601f016020809104026020016040519081016040528093929190818152602001838380828437600081840152601f19601f820116905080830192505050505050509192919290803560ff1690602001909291908035906020019064010000000081111561062957600080fd5b82018360208201111561063b57600080fd5b8035906020019184600183028401116401000000008311171561065d57600080fd5b91908080601f016020809104026020016040519081016040528093929190818152602001838380828437600081840152601f19601f820116905080830192505050505050509192919290505050610de1565b005b3480156106bd57600080fd5b506106c6610f3f565b604051808260ff1660ff16815260200191505060405180910390f35b3480156106ee57600080fd5b506107a86004803603602081101561070557600080fd5b810190808035906020019064010000000081111561072257600080fd5b82018360208201111561073457600080fd5b8035906020019184600183028401116401000000008311171561075657600080fd5b91908080601f016020809104026020016040519081016040528093929190818152602001838380828437600081840152601f19601f820116905080830192505050505050509192919290505050610fdb565b005b6060806000806107b86111ed565b600160008773ffffffffffffffffffffffffffffffffffffffff1673ffffffffffffffffffffffffffffffffffffffff16815260200190815260200160002060a06040519081016040529081600082018054600181600116156101000203166002900480601f01602080910402602001604051908101604052809291908181526020018280546001816001161561010002031660029004801561089c5780601f106108715761010080835404028352916020019161089c565b820191906000526020600020905b81548152906001019060200180831161087f57829003601f168201915b50505050508152602001600182018054600181600116156101000203166002900480601f01602080910402602001604051908101604052809291908181526020018280546001816001161561010002031660029004801561093e5780601f106109135761010080835404028352916020019161093e565b820191906000526020600020905b81548152906001019060200180831161092157829003601f168201915b505050505081526020016002820160009054906101000a9004700100000000000000000000000000000000026fffffffffffffffffffffffffffffffff19166fffffffffffffffffffffffffffffffff191681526020016002820160109054906101000a900460ff1660ff1660ff1681526020016002820160119054906101000a900463ffffffff1663ffffffff1663ffffffff1681525050905080600001518160200151826060015183608001518393508292509450945094509450509193509193565b6000600160003373ffffffffffffffffffffffffffffffffffffffff1673ffffffffffffffffffffffffffffffffffffffff16815260200190815260200160002060020160009054906101000a9004700100000000000000000000000000000000026fffffffffffffffffffffffffffffffff1916610ac584848080601f016020809104026020016040519081016040528093929190818152602001838380828437600081840152601f19601f82011690508083019250505050505050611170565b6fffffffffffffffffffffffffffffffff191614905092915050565b6000610aeb610cac565b1515610af657600080fd5b60016000610b02610c83565b73ffffffffffffffffffffffffffffffffffffffff1673ffffffffffffffffffffffffffffffffffffffff16815260200190815260200160002060020160009054906101000a9004700100000000000000000000000000000000026fffffffffffffffffffffffffffffffff1916610bbd84848080601f016020809104026020016040519081016040528093929190818152602001838380828437600081840152601f19601f82011690508083019250505050505050611170565b6fffffffffffffffffffffffffffffffff191614905092915050565b600080700100000000000000000000000000000000026fffffffffffffffffffffffffffffffff191660016000610c0e610c83565b73ffffffffffffffffffffffffffffffffffffffff1673ffffffffffffffffffffffffffffffffffffffff16815260200190815260200160002060020160009054906101000a9004700100000000000000000000000000000000026fffffffffffffffffffffffffffffffff19161415905090565b60008060009054906101000a900473ffffffffffffffffffffffffffffffffffffffff16905090565b60008060009054906101000a900473ffffffffffffffffffffffffffffffffffffffff1673ffffffffffffffffffffffffffffffffffffffff163373ffffffffffffffffffffffffffffffffffffffff1614905090565b6000600160003373ffffffffffffffffffffffffffffffffffffffff1673ffffffffffffffffffffffffffffffffffffffff16815260200190815260200160002060020160009054906101000a9004700100000000000000000000000000000000026fffffffffffffffffffffffffffffffff1916610dc584848080601f016020809104026020016040519081016040528093929190818152602001838380828437600081840152601f19601f82011690508083019250505050505050611170565b6fffffffffffffffffffffffffffffffff191614905092915050565b6000610dec82611170565b905060a060405190810160405280868152602001858152602001826fffffffffffffffffffffffffffffffff191681526020018460ff1681526020014263ffffffff16815250600160008873ffffffffffffffffffffffffffffffffffffffff1673ffffffffffffffffffffffffffffffffffffffff1681526020019081526020016000206000820151816000019080519060200190610e8d929190611239565b506020820151816001019080519060200190610eaa929190611239565b5060408201518160020160006101000a8154816fffffffffffffffffffffffffffffffff02191690837001000000000000000000000000000000009004021790555060608201518160020160106101000a81548160ff021916908360ff16021790555060808201518160020160116101000a81548163ffffffff021916908363ffffffff160217905550905050505050505050565b6000610f49610c83565b73ffffffffffffffffffffffffffffffffffffffff163373ffffffffffffffffffffffffffffffffffffffff161415610f855760019050610fd8565b600160003373ffffffffffffffffffffffffffffffffffffffff1673ffffffffffffffffffffffffffffffffffffffff16815260200190815260200160002060020160109054906101000a900460ff1690505b90565b610fe3610cac565b1515610fee57600080fd5b6000610ff982611170565b905060a0604051908101604052806020604051908101604052806000815250815260200160206040519081016040528060008152508152602001826fffffffffffffffffffffffffffffffff19168152602001600160ff1681526020014263ffffffff168152506001600061106c610c83565b73ffffffffffffffffffffffffffffffffffffffff1673ffffffffffffffffffffffffffffffffffffffff16815260200190815260200160002060008201518160000190805190602001906110c2929190611239565b5060208201518160010190805190602001906110df929190611239565b5060408201518160020160006101000a8154816fffffffffffffffffffffffffffffffff02191690837001000000000000000000000000000000009004021790555060608201518160020160106101000a81548160ff021916908360ff16021790555060808201518160020160116101000a81548163ffffffff021916908363ffffffff1602179055509050505050565b6000816040516020018082805190602001908083835b6020831015156111ab5780518252602082019150602081019050602083039250611186565b6001836020036101000a038019825116818451168082178552505050505050905001915050604051602081830303815290604052805190602001209050919050565b60a060405190810160405280606081526020016060815260200160006fffffffffffffffffffffffffffffffff19168152602001600060ff168152602001600063ffffffff1681525090565b828054600181600116156101000203166002900490600052602060002090601f016020900481019282601f1061127a57805160ff19168380011785556112a8565b828001600101855582156112a8579182015b828111156112a757825182559160200191906001019061128c565b5b5090506112b591906112b9565b5090565b6112db91905b808211156112d75760008160009055506001016112bf565b5090565b9056fea165627a7a72305820cd6dccc68816c8284ba45d8fb8c900e83bb24142f86a5872f8cb69fb9325fc1b0029",
  "source": "pragma solidity >=0.4.21 <0.6.0;\r\n\r\ncontract Ownable {\r\n  address private _owner;\r\n\r\n  // event OwnershipTransferred(\r\n  //   address indexed previousOwner,\r\n  //   address indexed newOwner\r\n  // );\r\n\r\n  constructor() internal {\r\n    _owner = msg.sender;\r\n    // emit OwnershipTransferred(address(0), _owner);\r\n  }\r\n\r\n  function owner() public view returns(address) {\r\n    return _owner;\r\n  }\r\n\r\n  modifier onlyOwner() {\r\n    require(isOwner());\r\n    _;\r\n  }\r\n\r\n  function isOwner() public view returns(bool) {\r\n    return msg.sender == _owner;\r\n  }\r\n\r\n  // function renounceOwnership() public onlyOwner {\r\n  //   emit OwnershipTransferred(_owner, address(0));\r\n  //   _owner = address(0);\r\n  // }\r\n\r\n  // function transferOwnership(address newOwner) public onlyOwner {\r\n  //   _transferOwnership(newOwner);\r\n  // }\r\n\r\n  // function _transferOwnership(address newOwner) internal {\r\n  //   require(newOwner != address(0));\r\n  //   emit OwnershipTransferred(_owner, newOwner);\r\n  //   _owner = newOwner;\r\n  // }\r\n}\r\n\r\ncontract DalatMilk is Ownable {\r\n\r\n    struct Profile{\r\n        string name;\r\n        string location;\r\n        bytes16 secret;\r\n        uint8 position;\r\n        uint32 date;\r\n    }\r\n    \r\n    mapping(address=>Profile) profile;\r\n\r\n    function checkUser() external view returns(uint8 actor) {\r\n        if(msg.sender == owner()){\r\n          return 1;\r\n        }else{\r\n          return profile[msg.sender].position;\r\n        }\r\n    }\r\n\r\n    function updateSecret(string memory secret) public onlyOwner {\r\n        bytes16 _secret = _generatePass(secret);\r\n        profile[owner()]= Profile('', '', _secret, 1, uint32(now));\r\n    }\r\n\r\n    function secretDeploy() external view returns(bool res) {\r\n       return profile[owner()].secret != bytes16(0);\r\n    }\r\n    \r\n    function getProfile(address _account) external view returns(string memory, string memory, uint8, uint32) {\r\n        Profile memory _acc = profile[_account];\r\n        return(_acc.name,_acc.location,_acc.position,_acc.date);\r\n    }\r\n\r\n    function userLogin(string calldata _key) external view returns(bool res) {\r\n        return _generatePass(_key) == profile[msg.sender].secret;\r\n    }\r\n    \r\n    \r\n    function updateProfile(address userAdd,string memory name, string memory location, uint8 position, string memory secret) public {\r\n        bytes16 _secret = _generatePass(secret);\r\n        profile[userAdd]= Profile(name, location, _secret, position, uint32(now));\r\n    }\r\n    \r\n    function checkSecret(string calldata _secret) external view onlyOwner returns(bool){\r\n        return _generatePass(_secret)==profile[owner()].secret;\r\n    }\r\n\r\n    function checkLogin(string calldata _secret) external view returns(bool){\r\n        return _generatePass(_secret)==profile[msg.sender].secret;\r\n    }\r\n    \r\n    function _generatePass(string memory secret) private pure returns(bytes16) {\r\n        return bytes16(keccak256(abi.encodePacked(secret)));\r\n    }\r\n    \r\n}\r\n",
  "sourcePath": "D:/blockchain/daLatMilk/appCore/contracts/DalatMilk.sol",
  "compiler": {
    "name": "solc",
    "version": "0.5.0+commit.1d4f565a.Emscripten.clang"
  },
  "schemaVersion": "3.0.3",
  "updatedAt": "2019-04-05T00:47:57.380Z",
  "devdoc": {
    "methods": {}
  },
  "userdoc": {
    "methods": {}
  }
}