{
  "contractName": "DalatMilk",
  "abi": [
    {
      "constant": true,
      "inputs": [],
      "name": "owner",
      "outputs": [
        {
          "name": "",
          "type": "address"
        }
      ],
      "payable": false,
      "stateMutability": "view",
      "type": "function",
      "signature": "0x8da5cb5b"
    },
    {
      "constant": true,
      "inputs": [],
      "name": "isOwner",
      "outputs": [
        {
          "name": "",
          "type": "bool"
        }
      ],
      "payable": false,
      "stateMutability": "view",
      "type": "function",
      "signature": "0x8f32d59b"
    },
    {
      "constant": false,
      "inputs": [
        {
          "name": "secret",
          "type": "string"
        }
      ],
      "name": "updateSecret",
      "outputs": [],
      "payable": false,
      "stateMutability": "nonpayable",
      "type": "function",
      "signature": "0xcd486ad5"
    },
    {
      "constant": true,
      "inputs": [],
      "name": "secretDeploy",
      "outputs": [
        {
          "name": "res",
          "type": "bool"
        }
      ],
      "payable": false,
      "stateMutability": "view",
      "type": "function",
      "signature": "0x85599d5b"
    },
    {
      "constant": true,
      "inputs": [
        {
          "name": "_account",
          "type": "address"
        }
      ],
      "name": "getProfile",
      "outputs": [
        {
          "name": "",
          "type": "string"
        },
        {
          "name": "",
          "type": "string"
        },
        {
          "name": "",
          "type": "uint32"
        }
      ],
      "payable": false,
      "stateMutability": "view",
      "type": "function",
      "signature": "0x0f53a470"
    },
    {
      "constant": false,
      "inputs": [
        {
          "name": "userAdd",
          "type": "address"
        },
        {
          "name": "name",
          "type": "string"
        },
        {
          "name": "location",
          "type": "string"
        },
        {
          "name": "secret",
          "type": "string"
        }
      ],
      "name": "updateProfile",
      "outputs": [],
      "payable": false,
      "stateMutability": "nonpayable",
      "type": "function",
      "signature": "0x9d5a3941"
    },
    {
      "constant": true,
      "inputs": [
        {
          "name": "_secret",
          "type": "string"
        }
      ],
      "name": "checkSecret",
      "outputs": [
        {
          "name": "",
          "type": "bool"
        }
      ],
      "payable": false,
      "stateMutability": "view",
      "type": "function",
      "signature": "0x60ea95f1"
    }
  ],
  "bytecode": "0x6080604052336000806101000a81548173ffffffffffffffffffffffffffffffffffffffff021916908373ffffffffffffffffffffffffffffffffffffffff160217905550610e85806100536000396000f3fe608060405260043610610083576000357c0100000000000000000000000000000000000000000000000000000000900463ffffffff1680630f53a4701461008857806360ea95f1146101d157806385599d5b1461026f5780638da5cb5b1461029e5780638f32d59b146102f55780639d5a394114610324578063cd486ad51461053a575b600080fd5b34801561009457600080fd5b506100d7600480360360208110156100ab57600080fd5b81019080803573ffffffffffffffffffffffffffffffffffffffff169060200190929190505050610602565b6040518080602001806020018463ffffffff1663ffffffff168152602001838103835286818151815260200191508051906020019080838360005b8381101561012d578082015181840152602081019050610112565b50505050905090810190601f16801561015a5780820380516001836020036101000a031916815260200191505b50838103825285818151815260200191508051906020019080838360005b83811015610193578082015181840152602081019050610178565b50505050905090810190601f1680156101c05780820380516001836020036101000a031916815260200191505b509550505050505060405180910390f35b3480156101dd57600080fd5b50610255600480360360208110156101f457600080fd5b810190808035906020019064010000000081111561021157600080fd5b82018360208201111561022357600080fd5b8035906020019184600183028401116401000000008311171561024557600080fd5b9091929391929390505050610836565b604051808215151515815260200191505060405180910390f35b34801561027b57600080fd5b5061028461092e565b604051808215151515815260200191505060405180910390f35b3480156102aa57600080fd5b506102b36109d8565b604051808273ffffffffffffffffffffffffffffffffffffffff1673ffffffffffffffffffffffffffffffffffffffff16815260200191505060405180910390f35b34801561030157600080fd5b5061030a610a01565b604051808215151515815260200191505060405180910390f35b34801561033057600080fd5b506105386004803603608081101561034757600080fd5b81019080803573ffffffffffffffffffffffffffffffffffffffff1690602001909291908035906020019064010000000081111561038457600080fd5b82018360208201111561039657600080fd5b803590602001918460018302840111640100000000831117156103b857600080fd5b91908080601f016020809104026020016040519081016040528093929190818152602001838380828437600081840152601f19601f8201169050808301925050505050505091929192908035906020019064010000000081111561041b57600080fd5b82018360208201111561042d57600080fd5b8035906020019184600183028401116401000000008311171561044f57600080fd5b91908080601f016020809104026020016040519081016040528093929190818152602001838380828437600081840152601f19601f820116905080830192505050505050509192919290803590602001906401000000008111156104b257600080fd5b8201836020820111156104c457600080fd5b803590602001918460018302840111640100000000831117156104e657600080fd5b91908080601f016020809104026020016040519081016040528093929190818152602001838380828437600081840152601f19601f820116905080830192505050505050509192919290505050610a58565b005b34801561054657600080fd5b506106006004803603602081101561055d57600080fd5b810190808035906020019064010000000081111561057a57600080fd5b82018360208201111561058c57600080fd5b803590602001918460018302840111640100000000831117156105ae57600080fd5b91908080601f016020809104026020016040519081016040528093929190818152602001838380828437600081840152601f19601f820116905080830192505050505050509192919290505050610b8b565b005b606080600061060f610d72565b600160008673ffffffffffffffffffffffffffffffffffffffff1673ffffffffffffffffffffffffffffffffffffffff16815260200190815260200160002060806040519081016040529081600082018054600181600116156101000203166002900480601f0160208091040260200160405190810160405280929190818152602001828054600181600116156101000203166002900480156106f35780601f106106c8576101008083540402835291602001916106f3565b820191906000526020600020905b8154815290600101906020018083116106d657829003601f168201915b50505050508152602001600182018054600181600116156101000203166002900480601f0160208091040260200160405190810160405280929190818152602001828054600181600116156101000203166002900480156107955780601f1061076a57610100808354040283529160200191610795565b820191906000526020600020905b81548152906001019060200180831161077857829003601f168201915b505050505081526020016002820160009054906101000a9004700100000000000000000000000000000000026fffffffffffffffffffffffffffffffff19166fffffffffffffffffffffffffffffffff191681526020016002820160109054906101000a900463ffffffff1663ffffffff1663ffffffff16815250509050806000015181602001518260600151829250819150935093509350509193909250565b6000610840610a01565b151561084b57600080fd5b600160006108576109d8565b73ffffffffffffffffffffffffffffffffffffffff1673ffffffffffffffffffffffffffffffffffffffff16815260200190815260200160002060020160009054906101000a9004700100000000000000000000000000000000026fffffffffffffffffffffffffffffffff191661091284848080601f016020809104026020016040519081016040528093929190818152602001838380828437600081840152601f19601f82011690508083019250505050505050610cf5565b6fffffffffffffffffffffffffffffffff191614905092915050565b600080700100000000000000000000000000000000026fffffffffffffffffffffffffffffffff1916600160006109636109d8565b73ffffffffffffffffffffffffffffffffffffffff1673ffffffffffffffffffffffffffffffffffffffff16815260200190815260200160002060020160009054906101000a9004700100000000000000000000000000000000026fffffffffffffffffffffffffffffffff19161415905090565b60008060009054906101000a900473ffffffffffffffffffffffffffffffffffffffff16905090565b60008060009054906101000a900473ffffffffffffffffffffffffffffffffffffffff1673ffffffffffffffffffffffffffffffffffffffff163373ffffffffffffffffffffffffffffffffffffffff1614905090565b6000610a6382610cf5565b9050608060405190810160405280858152602001848152602001826fffffffffffffffffffffffffffffffff191681526020014263ffffffff16815250600160008773ffffffffffffffffffffffffffffffffffffffff1673ffffffffffffffffffffffffffffffffffffffff1681526020019081526020016000206000820151816000019080519060200190610afb929190610db4565b506020820151816001019080519060200190610b18929190610db4565b5060408201518160020160006101000a8154816fffffffffffffffffffffffffffffffff02191690837001000000000000000000000000000000009004021790555060608201518160020160106101000a81548163ffffffff021916908363ffffffff1602179055509050505050505050565b610b93610a01565b1515610b9e57600080fd5b6000610ba982610cf5565b90506080604051908101604052806020604051908101604052806000815250815260200160206040519081016040528060008152508152602001826fffffffffffffffffffffffffffffffff191681526020014263ffffffff1681525060016000610c126109d8565b73ffffffffffffffffffffffffffffffffffffffff1673ffffffffffffffffffffffffffffffffffffffff1681526020019081526020016000206000820151816000019080519060200190610c68929190610db4565b506020820151816001019080519060200190610c85929190610db4565b5060408201518160020160006101000a8154816fffffffffffffffffffffffffffffffff02191690837001000000000000000000000000000000009004021790555060608201518160020160106101000a81548163ffffffff021916908363ffffffff1602179055509050505050565b6000816040516020018082805190602001908083835b602083101515610d305780518252602082019150602081019050602083039250610d0b565b6001836020036101000a038019825116818451168082178552505050505050905001915050604051602081830303815290604052805190602001209050919050565b608060405190810160405280606081526020016060815260200160006fffffffffffffffffffffffffffffffff19168152602001600063ffffffff1681525090565b828054600181600116156101000203166002900490600052602060002090601f016020900481019282601f10610df557805160ff1916838001178555610e23565b82800160010185558215610e23579182015b82811115610e22578251825591602001919060010190610e07565b5b509050610e309190610e34565b5090565b610e5691905b80821115610e52576000816000905550600101610e3a565b5090565b9056fea165627a7a72305820b150d689ba6f41fd4d1d88048ad62553c229878b39923baa71074e64d15adc9e0029",
  "source": "pragma solidity >=0.4.21 <0.6.0;\r\n\r\ncontract Ownable {\r\n  address private _owner;\r\n\r\n  // event OwnershipTransferred(\r\n  //   address indexed previousOwner,\r\n  //   address indexed newOwner\r\n  // );\r\n\r\n  constructor() internal {\r\n    _owner = msg.sender;\r\n    // emit OwnershipTransferred(address(0), _owner);\r\n  }\r\n\r\n  function owner() public view returns(address) {\r\n    return _owner;\r\n  }\r\n\r\n  modifier onlyOwner() {\r\n    require(isOwner());\r\n    _;\r\n  }\r\n\r\n  function isOwner() public view returns(bool) {\r\n    return msg.sender == _owner;\r\n  }\r\n\r\n  // function renounceOwnership() public onlyOwner {\r\n  //   emit OwnershipTransferred(_owner, address(0));\r\n  //   _owner = address(0);\r\n  // }\r\n\r\n  // function transferOwnership(address newOwner) public onlyOwner {\r\n  //   _transferOwnership(newOwner);\r\n  // }\r\n\r\n  // function _transferOwnership(address newOwner) internal {\r\n  //   require(newOwner != address(0));\r\n  //   emit OwnershipTransferred(_owner, newOwner);\r\n  //   _owner = newOwner;\r\n  // }\r\n}\r\n\r\ncontract DalatMilk is Ownable {\r\n\r\n    struct Profile{\r\n        string name;\r\n        string location;\r\n        bytes16 secret;\r\n        uint32 date;\r\n    }\r\n    \r\n    mapping(address=>Profile) profile;\r\n\r\n    function updateSecret(string memory secret) public onlyOwner {\r\n        bytes16 _secret = _generatePass(secret);\r\n        profile[owner()]= Profile('', '', _secret, uint32(now));\r\n    }\r\n\r\n    function secretDeploy() external view returns(bool res) {\r\n       return profile[owner()].secret != bytes16(0);\r\n    }\r\n    \r\n    function getProfile(address _account) external view returns(string memory, string memory, uint32) {\r\n        Profile memory _acc = profile[_account];\r\n        return(_acc.name,_acc.location,_acc.date);\r\n    }\r\n    \r\n    function updateProfile(address userAdd,string memory name, string memory location, string memory secret) public {\r\n        bytes16 _secret = _generatePass(secret);\r\n        profile[userAdd]= Profile(name, location, _secret, uint32(now));\r\n    }\r\n    \r\n    function checkSecret(string calldata _secret) external view onlyOwner returns(bool){\r\n        return _generatePass(_secret)==profile[owner()].secret;\r\n    }\r\n    \r\n    function _generatePass(string memory secret) private pure returns(bytes16) {\r\n        return bytes16(keccak256(abi.encodePacked(secret)));\r\n    }\r\n    \r\n}\r\n",
  "sourcePath": "D:/blockchain/daLatMilk/appCore/contracts/DalatMilk.sol",
  "compiler": {
    "name": "solc",
    "version": "0.5.0+commit.1d4f565a.Emscripten.clang"
  },
  "schemaVersion": "3.0.3",
  "updatedAt": "2019-03-27T09:47:19.567Z",
  "devdoc": {
    "methods": {}
  },
  "userdoc": {
    "methods": {}
  }
}