{
  "contractName": "DalatMilk",
  "abi": [
    {
      "constant": true,
      "inputs": [],
      "name": "owner",
      "outputs": [
        {
          "name": "",
          "type": "address"
        }
      ],
      "payable": false,
      "stateMutability": "view",
      "type": "function",
      "signature": "0x8da5cb5b"
    },
    {
      "constant": true,
      "inputs": [],
      "name": "isOwner",
      "outputs": [
        {
          "name": "",
          "type": "bool"
        }
      ],
      "payable": false,
      "stateMutability": "view",
      "type": "function",
      "signature": "0x8f32d59b"
    },
    {
      "constant": true,
      "inputs": [],
      "name": "checkUser",
      "outputs": [
        {
          "name": "actor",
          "type": "uint8"
        }
      ],
      "payable": false,
      "stateMutability": "view",
      "type": "function",
      "signature": "0xc1562547"
    },
    {
      "constant": false,
      "inputs": [
        {
          "name": "secret",
          "type": "string"
        }
      ],
      "name": "updateSecret",
      "outputs": [],
      "payable": false,
      "stateMutability": "nonpayable",
      "type": "function",
      "signature": "0xcd486ad5"
    },
    {
      "constant": true,
      "inputs": [],
      "name": "secretDeploy",
      "outputs": [
        {
          "name": "res",
          "type": "bool"
        }
      ],
      "payable": false,
      "stateMutability": "view",
      "type": "function",
      "signature": "0x85599d5b"
    },
    {
      "constant": true,
      "inputs": [
        {
          "name": "_account",
          "type": "address"
        }
      ],
      "name": "getProfile",
      "outputs": [
        {
          "name": "",
          "type": "string"
        },
        {
          "name": "",
          "type": "string"
        },
        {
          "name": "",
          "type": "uint8"
        },
        {
          "name": "",
          "type": "uint32"
        }
      ],
      "payable": false,
      "stateMutability": "view",
      "type": "function",
      "signature": "0x0f53a470"
    },
    {
      "constant": true,
      "inputs": [
        {
          "name": "_key",
          "type": "string"
        }
      ],
      "name": "userLogin",
      "outputs": [
        {
          "name": "res",
          "type": "bool"
        }
      ],
      "payable": false,
      "stateMutability": "view",
      "type": "function",
      "signature": "0xb01f91bb"
    },
    {
      "constant": false,
      "inputs": [
        {
          "name": "userAdd",
          "type": "address"
        },
        {
          "name": "name",
          "type": "string"
        },
        {
          "name": "location",
          "type": "string"
        },
        {
          "name": "position",
          "type": "uint8"
        },
        {
          "name": "secret",
          "type": "string"
        }
      ],
      "name": "updateProfile",
      "outputs": [],
      "payable": false,
      "stateMutability": "nonpayable",
      "type": "function",
      "signature": "0xc0de420c"
    },
    {
      "constant": true,
      "inputs": [
        {
          "name": "_secret",
          "type": "string"
        }
      ],
      "name": "checkSecret",
      "outputs": [
        {
          "name": "",
          "type": "bool"
        }
      ],
      "payable": false,
      "stateMutability": "view",
      "type": "function",
      "signature": "0x60ea95f1"
    }
  ],
  "bytecode": "0x6080604052336000806101000a81548173ffffffffffffffffffffffffffffffffffffffff021916908373ffffffffffffffffffffffffffffffffffffffff160217905550611183806100536000396000f3fe608060405260043610610099576000357c0100000000000000000000000000000000000000000000000000000000900463ffffffff1680630f53a4701461009e57806360ea95f1146101f457806385599d5b146102925780638da5cb5b146102c15780638f32d59b14610318578063b01f91bb14610347578063c0de420c146103e5578063c156254714610608578063cd486ad514610639575b600080fd5b3480156100aa57600080fd5b506100ed600480360360208110156100c157600080fd5b81019080803573ffffffffffffffffffffffffffffffffffffffff169060200190929190505050610701565b6040518080602001806020018560ff1660ff1681526020018463ffffffff1663ffffffff168152602001838103835287818151815260200191508051906020019080838360005b8381101561014f578082015181840152602081019050610134565b50505050905090810190601f16801561017c5780820380516001836020036101000a031916815260200191505b50838103825286818151815260200191508051906020019080838360005b838110156101b557808201518184015260208101905061019a565b50505050905090810190601f1680156101e25780820380516001836020036101000a031916815260200191505b50965050505050505060405180910390f35b34801561020057600080fd5b506102786004803603602081101561021757600080fd5b810190808035906020019064010000000081111561023457600080fd5b82018360208201111561024657600080fd5b8035906020019184600183028401116401000000008311171561026857600080fd5b909192939192939050505061095a565b604051808215151515815260200191505060405180910390f35b34801561029e57600080fd5b506102a7610a52565b604051808215151515815260200191505060405180910390f35b3480156102cd57600080fd5b506102d6610afc565b604051808273ffffffffffffffffffffffffffffffffffffffff1673ffffffffffffffffffffffffffffffffffffffff16815260200191505060405180910390f35b34801561032457600080fd5b5061032d610b25565b604051808215151515815260200191505060405180910390f35b34801561035357600080fd5b506103cb6004803603602081101561036a57600080fd5b810190808035906020019064010000000081111561038757600080fd5b82018360208201111561039957600080fd5b803590602001918460018302840111640100000000831117156103bb57600080fd5b9091929391929390505050610b7c565b604051808215151515815260200191505060405180910390f35b3480156103f157600080fd5b50610606600480360360a081101561040857600080fd5b81019080803573ffffffffffffffffffffffffffffffffffffffff1690602001909291908035906020019064010000000081111561044557600080fd5b82018360208201111561045757600080fd5b8035906020019184600183028401116401000000008311171561047957600080fd5b91908080601f016020809104026020016040519081016040528093929190818152602001838380828437600081840152601f19601f820116905080830192505050505050509192919290803590602001906401000000008111156104dc57600080fd5b8201836020820111156104ee57600080fd5b8035906020019184600183028401116401000000008311171561051057600080fd5b91908080601f016020809104026020016040519081016040528093929190818152602001838380828437600081840152601f19601f820116905080830192505050505050509192919290803560ff1690602001909291908035906020019064010000000081111561058057600080fd5b82018360208201111561059257600080fd5b803590602001918460018302840111640100000000831117156105b457600080fd5b91908080601f016020809104026020016040519081016040528093929190818152602001838380828437600081840152601f19601f820116905080830192505050505050509192919290505050610c5a565b005b34801561061457600080fd5b5061061d610db8565b604051808260ff1660ff16815260200191505060405180910390f35b34801561064557600080fd5b506106ff6004803603602081101561065c57600080fd5b810190808035906020019064010000000081111561067957600080fd5b82018360208201111561068b57600080fd5b803590602001918460018302840111640100000000831117156106ad57600080fd5b91908080601f016020809104026020016040519081016040528093929190818152602001838380828437600081840152601f19601f820116905080830192505050505050509192919290505050610e54565b005b60608060008061070f611066565b600160008773ffffffffffffffffffffffffffffffffffffffff1673ffffffffffffffffffffffffffffffffffffffff16815260200190815260200160002060a06040519081016040529081600082018054600181600116156101000203166002900480601f0160208091040260200160405190810160405280929190818152602001828054600181600116156101000203166002900480156107f35780601f106107c8576101008083540402835291602001916107f3565b820191906000526020600020905b8154815290600101906020018083116107d657829003601f168201915b50505050508152602001600182018054600181600116156101000203166002900480601f0160208091040260200160405190810160405280929190818152602001828054600181600116156101000203166002900480156108955780601f1061086a57610100808354040283529160200191610895565b820191906000526020600020905b81548152906001019060200180831161087857829003601f168201915b505050505081526020016002820160009054906101000a9004700100000000000000000000000000000000026fffffffffffffffffffffffffffffffff19166fffffffffffffffffffffffffffffffff191681526020016002820160109054906101000a900460ff1660ff1660ff1681526020016002820160119054906101000a900463ffffffff1663ffffffff1663ffffffff1681525050905080600001518160200151826060015183608001518393508292509450945094509450509193509193565b6000610964610b25565b151561096f57600080fd5b6001600061097b610afc565b73ffffffffffffffffffffffffffffffffffffffff1673ffffffffffffffffffffffffffffffffffffffff16815260200190815260200160002060020160009054906101000a9004700100000000000000000000000000000000026fffffffffffffffffffffffffffffffff1916610a3684848080601f016020809104026020016040519081016040528093929190818152602001838380828437600081840152601f19601f82011690508083019250505050505050610fe9565b6fffffffffffffffffffffffffffffffff191614905092915050565b600080700100000000000000000000000000000000026fffffffffffffffffffffffffffffffff191660016000610a87610afc565b73ffffffffffffffffffffffffffffffffffffffff1673ffffffffffffffffffffffffffffffffffffffff16815260200190815260200160002060020160009054906101000a9004700100000000000000000000000000000000026fffffffffffffffffffffffffffffffff19161415905090565b60008060009054906101000a900473ffffffffffffffffffffffffffffffffffffffff16905090565b60008060009054906101000a900473ffffffffffffffffffffffffffffffffffffffff1673ffffffffffffffffffffffffffffffffffffffff163373ffffffffffffffffffffffffffffffffffffffff1614905090565b6000600160003373ffffffffffffffffffffffffffffffffffffffff1673ffffffffffffffffffffffffffffffffffffffff16815260200190815260200160002060020160009054906101000a9004700100000000000000000000000000000000026fffffffffffffffffffffffffffffffff1916610c3e84848080601f016020809104026020016040519081016040528093929190818152602001838380828437600081840152601f19601f82011690508083019250505050505050610fe9565b6fffffffffffffffffffffffffffffffff191614905092915050565b6000610c6582610fe9565b905060a060405190810160405280868152602001858152602001826fffffffffffffffffffffffffffffffff191681526020018460ff1681526020014263ffffffff16815250600160008873ffffffffffffffffffffffffffffffffffffffff1673ffffffffffffffffffffffffffffffffffffffff1681526020019081526020016000206000820151816000019080519060200190610d069291906110b2565b506020820151816001019080519060200190610d239291906110b2565b5060408201518160020160006101000a8154816fffffffffffffffffffffffffffffffff02191690837001000000000000000000000000000000009004021790555060608201518160020160106101000a81548160ff021916908360ff16021790555060808201518160020160116101000a81548163ffffffff021916908363ffffffff160217905550905050505050505050565b6000610dc2610afc565b73ffffffffffffffffffffffffffffffffffffffff163373ffffffffffffffffffffffffffffffffffffffff161415610dfe5760019050610e51565b600160003373ffffffffffffffffffffffffffffffffffffffff1673ffffffffffffffffffffffffffffffffffffffff16815260200190815260200160002060020160109054906101000a900460ff1690505b90565b610e5c610b25565b1515610e6757600080fd5b6000610e7282610fe9565b905060a0604051908101604052806020604051908101604052806000815250815260200160206040519081016040528060008152508152602001826fffffffffffffffffffffffffffffffff19168152602001600160ff1681526020014263ffffffff1681525060016000610ee5610afc565b73ffffffffffffffffffffffffffffffffffffffff1673ffffffffffffffffffffffffffffffffffffffff1681526020019081526020016000206000820151816000019080519060200190610f3b9291906110b2565b506020820151816001019080519060200190610f589291906110b2565b5060408201518160020160006101000a8154816fffffffffffffffffffffffffffffffff02191690837001000000000000000000000000000000009004021790555060608201518160020160106101000a81548160ff021916908360ff16021790555060808201518160020160116101000a81548163ffffffff021916908363ffffffff1602179055509050505050565b6000816040516020018082805190602001908083835b6020831015156110245780518252602082019150602081019050602083039250610fff565b6001836020036101000a038019825116818451168082178552505050505050905001915050604051602081830303815290604052805190602001209050919050565b60a060405190810160405280606081526020016060815260200160006fffffffffffffffffffffffffffffffff19168152602001600060ff168152602001600063ffffffff1681525090565b828054600181600116156101000203166002900490600052602060002090601f016020900481019282601f106110f357805160ff1916838001178555611121565b82800160010185558215611121579182015b82811115611120578251825591602001919060010190611105565b5b50905061112e9190611132565b5090565b61115491905b80821115611150576000816000905550600101611138565b5090565b9056fea165627a7a72305820fd71b82c329afb1c673c8011c215ca252dbe574e9e7a3200ee79b4ffc744b7f70029",
  "source": "pragma solidity >=0.4.21 <0.6.0;\r\n\r\ncontract Ownable {\r\n  address private _owner;\r\n\r\n  // event OwnershipTransferred(\r\n  //   address indexed previousOwner,\r\n  //   address indexed newOwner\r\n  // );\r\n\r\n  constructor() internal {\r\n    _owner = msg.sender;\r\n    // emit OwnershipTransferred(address(0), _owner);\r\n  }\r\n\r\n  function owner() public view returns(address) {\r\n    return _owner;\r\n  }\r\n\r\n  modifier onlyOwner() {\r\n    require(isOwner());\r\n    _;\r\n  }\r\n\r\n  function isOwner() public view returns(bool) {\r\n    return msg.sender == _owner;\r\n  }\r\n\r\n  // function renounceOwnership() public onlyOwner {\r\n  //   emit OwnershipTransferred(_owner, address(0));\r\n  //   _owner = address(0);\r\n  // }\r\n\r\n  // function transferOwnership(address newOwner) public onlyOwner {\r\n  //   _transferOwnership(newOwner);\r\n  // }\r\n\r\n  // function _transferOwnership(address newOwner) internal {\r\n  //   require(newOwner != address(0));\r\n  //   emit OwnershipTransferred(_owner, newOwner);\r\n  //   _owner = newOwner;\r\n  // }\r\n}\r\n\r\ncontract DalatMilk is Ownable {\r\n\r\n    struct Profile{\r\n        string name;\r\n        string location;\r\n        bytes16 secret;\r\n        uint8 position;\r\n        uint32 date;\r\n    }\r\n    \r\n    mapping(address=>Profile) profile;\r\n\r\n    function checkUser() external view returns(uint8 actor) {\r\n        if(msg.sender == owner()){\r\n          return 1;\r\n        }else{\r\n          return profile[msg.sender].position;\r\n        }\r\n    }\r\n\r\n    function updateSecret(string memory secret) public onlyOwner {\r\n        bytes16 _secret = _generatePass(secret);\r\n        profile[owner()]= Profile('', '', _secret, 1, uint32(now));\r\n    }\r\n\r\n    function secretDeploy() external view returns(bool res) {\r\n       return profile[owner()].secret != bytes16(0);\r\n    }\r\n    \r\n    function getProfile(address _account) external view returns(string memory, string memory, uint8, uint32) {\r\n        Profile memory _acc = profile[_account];\r\n        return(_acc.name,_acc.location,_acc.position,_acc.date);\r\n    }\r\n\r\n    function userLogin(string calldata _key) external view returns(bool res) {\r\n        return _generatePass(_key) == profile[msg.sender].secret;\r\n    }\r\n    \r\n    \r\n    function updateProfile(address userAdd,string memory name, string memory location, uint8 position, string memory secret) public {\r\n        bytes16 _secret = _generatePass(secret);\r\n        profile[userAdd]= Profile(name, location, _secret, position, uint32(now));\r\n    }\r\n    \r\n    function checkSecret(string calldata _secret) external view onlyOwner returns(bool){\r\n        return _generatePass(_secret)==profile[owner()].secret;\r\n    }\r\n    \r\n    function _generatePass(string memory secret) private pure returns(bytes16) {\r\n        return bytes16(keccak256(abi.encodePacked(secret)));\r\n    }\r\n    \r\n}\r\n",
  "sourcePath": "D:/blockchain/daLatMilk/appCore/contracts/DalatMilk.sol",
  "compiler": {
    "name": "solc",
    "version": "0.5.0+commit.1d4f565a.Emscripten.clang"
  },
  "schemaVersion": "3.0.3",
  "updatedAt": "2019-03-29T09:40:45.050Z",
  "devdoc": {
    "methods": {}
  },
  "userdoc": {
    "methods": {}
  }
}