{
  "contractName": "Farmer",
  "abi": [
    {
      "anonymous": false,
      "inputs": [
        {
          "indexed": false,
          "name": "categoryId",
          "type": "uint32"
        }
      ],
      "name": "getCategoryId",
      "type": "event",
      "signature": "0xd617a251bbd9e4e0ce5ee242e7d444d67f71ef869662648a08c7743fd286fe49"
    },
    {
      "anonymous": false,
      "inputs": [
        {
          "indexed": false,
          "name": "milkId",
          "type": "uint32"
        }
      ],
      "name": "getMilkId",
      "type": "event",
      "signature": "0xa8211b837d154d8198fdbaadad7f241938293223f645567098775b2a7b05c5b7"
    },
    {
      "constant": false,
      "inputs": [
        {
          "name": "name",
          "type": "string"
        },
        {
          "name": "cow",
          "type": "string"
        },
        {
          "name": "income",
          "type": "uint32"
        },
        {
          "name": "price",
          "type": "uint32"
        }
      ],
      "name": "addCategory",
      "outputs": [],
      "payable": false,
      "stateMutability": "nonpayable",
      "type": "function",
      "signature": "0x4a525453"
    },
    {
      "constant": true,
      "inputs": [
        {
          "name": "farm",
          "type": "address"
        },
        {
          "name": "catId",
          "type": "uint32"
        }
      ],
      "name": "getCategory",
      "outputs": [
        {
          "name": "",
          "type": "uint32"
        },
        {
          "name": "",
          "type": "uint32"
        },
        {
          "name": "",
          "type": "uint32"
        },
        {
          "name": "",
          "type": "string"
        },
        {
          "name": "",
          "type": "string"
        }
      ],
      "payable": false,
      "stateMutability": "view",
      "type": "function",
      "signature": "0xdaad20de"
    },
    {
      "constant": false,
      "inputs": [
        {
          "name": "categoryId",
          "type": "uint32"
        },
        {
          "name": "quantity",
          "type": "uint32"
        }
      ],
      "name": "addMilkInfo",
      "outputs": [],
      "payable": false,
      "stateMutability": "nonpayable",
      "type": "function",
      "signature": "0x27847ca0"
    },
    {
      "constant": true,
      "inputs": [
        {
          "name": "farm",
          "type": "address"
        },
        {
          "name": "milkId",
          "type": "uint32"
        }
      ],
      "name": "getMilkInfo",
      "outputs": [
        {
          "name": "",
          "type": "uint32"
        },
        {
          "name": "",
          "type": "uint32"
        },
        {
          "name": "",
          "type": "uint32"
        },
        {
          "name": "",
          "type": "uint32"
        },
        {
          "name": "",
          "type": "uint32"
        }
      ],
      "payable": false,
      "stateMutability": "view",
      "type": "function",
      "signature": "0xa343c3d8"
    }
  ],
  "bytecode": "0x608060405234801561001057600080fd5b50610d67806100206000396000f3fe608060405260043610610062576000357c0100000000000000000000000000000000000000000000000000000000900463ffffffff16806327847ca0146100675780634a525453146100b8578063a343c3d8146101b3578063daad20de14610280575b600080fd5b34801561007357600080fd5b506100b66004803603604081101561008a57600080fd5b81019080803563ffffffff169060200190929190803563ffffffff1690602001909291905050506103ff565b005b3480156100c457600080fd5b506101b1600480360360808110156100db57600080fd5b81019080803590602001906401000000008111156100f857600080fd5b82018360208201111561010a57600080fd5b8035906020019184600183028401116401000000008311171561012c57600080fd5b90919293919293908035906020019064010000000081111561014d57600080fd5b82018360208201111561015f57600080fd5b8035906020019184600183028401116401000000008311171561018157600080fd5b9091929391929390803563ffffffff169060200190929190803563ffffffff1690602001909291905050506105b6565b005b3480156101bf57600080fd5b50610212600480360360408110156101d657600080fd5b81019080803573ffffffffffffffffffffffffffffffffffffffff169060200190929190803563ffffffff16906020019092919050505061080a565b604051808663ffffffff1663ffffffff1681526020018563ffffffff1663ffffffff1681526020018463ffffffff1663ffffffff1681526020018363ffffffff1663ffffffff1681526020018263ffffffff1663ffffffff1681526020019550505050505060405180910390f35b34801561028c57600080fd5b506102df600480360360408110156102a357600080fd5b81019080803573ffffffffffffffffffffffffffffffffffffffff169060200190929190803563ffffffff169060200190929190505050610970565b604051808663ffffffff1663ffffffff1681526020018563ffffffff1663ffffffff1681526020018463ffffffff1663ffffffff1681526020018060200180602001838103835285818151815260200191508051906020019080838360005b8381101561035957808201518184015260208101905061033e565b50505050905090810190601f1680156103865780820380516001836020036101000a031916815260200191505b50838103825284818151815260200191508051906020019080838360005b838110156103bf5780820151818401526020810190506103a4565b50505050905090810190601f1680156103ec5780820380516001836020036101000a031916815260200191505b5097505050505050505060405180910390f35b600042905060a0604051908101604052808263ffffffff1681526020018463ffffffff1681526020018363ffffffff168152602001600063ffffffff168152602001600063ffffffff16815250600160003373ffffffffffffffffffffffffffffffffffffffff1673ffffffffffffffffffffffffffffffffffffffff16815260200190815260200160002060008363ffffffff1663ffffffff16815260200190815260200160002060008201518160000160006101000a81548163ffffffff021916908363ffffffff16021790555060208201518160000160046101000a81548163ffffffff021916908363ffffffff16021790555060408201518160000160086101000a81548163ffffffff021916908363ffffffff160217905550606082015181600001600c6101000a81548163ffffffff021916908363ffffffff16021790555060808201518160000160106101000a81548163ffffffff021916908363ffffffff1602179055509050507fa8211b837d154d8198fdbaadad7f241938293223f645567098775b2a7b05c5b781604051808263ffffffff1663ffffffff16815260200191505060405180910390a1505050565b600042905060c0604051908101604052808263ffffffff168152602001600063ffffffff1681526020018463ffffffff1681526020018363ffffffff16815260200188888080601f016020809104026020016040519081016040528093929190818152602001838380828437600081840152601f19601f82011690508083019250505050505050815260200186868080601f016020809104026020016040519081016040528093929190818152602001838380828437600081840152601f19601f820116905080830192505050505050508152506000803373ffffffffffffffffffffffffffffffffffffffff1673ffffffffffffffffffffffffffffffffffffffff16815260200190815260200160002060008363ffffffff1663ffffffff16815260200190815260200160002060008201518160000160006101000a81548163ffffffff021916908363ffffffff16021790555060208201518160000160046101000a81548163ffffffff021916908363ffffffff16021790555060408201518160000160086101000a81548163ffffffff021916908363ffffffff160217905550606082015181600001600c6101000a81548163ffffffff021916908363ffffffff160217905550608082015181600101908051906020019061079d929190610bf9565b5060a08201518160020190805190602001906107ba929190610bf9565b509050507fd617a251bbd9e4e0ce5ee242e7d444d67f71ef869662648a08c7743fd286fe4981604051808263ffffffff1663ffffffff16815260200191505060405180910390a150505050505050565b600080600080600061081a610c79565b600160008973ffffffffffffffffffffffffffffffffffffffff1673ffffffffffffffffffffffffffffffffffffffff16815260200190815260200160002060008863ffffffff1663ffffffff16815260200190815260200160002060a060405190810160405290816000820160009054906101000a900463ffffffff1663ffffffff1663ffffffff1681526020016000820160049054906101000a900463ffffffff1663ffffffff1663ffffffff1681526020016000820160089054906101000a900463ffffffff1663ffffffff1663ffffffff16815260200160008201600c9054906101000a900463ffffffff1663ffffffff1663ffffffff1681526020016000820160109054906101000a900463ffffffff1663ffffffff1663ffffffff168152505090508060000151816020015182604001518360600151846080015195509550955095509550509295509295909350565b6000806000606080610980610cc7565b6000808973ffffffffffffffffffffffffffffffffffffffff1673ffffffffffffffffffffffffffffffffffffffff16815260200190815260200160002060008863ffffffff1663ffffffff16815260200190815260200160002060c060405190810160405290816000820160009054906101000a900463ffffffff1663ffffffff1663ffffffff1681526020016000820160049054906101000a900463ffffffff1663ffffffff1663ffffffff1681526020016000820160089054906101000a900463ffffffff1663ffffffff1663ffffffff16815260200160008201600c9054906101000a900463ffffffff1663ffffffff1663ffffffff168152602001600182018054600181600116156101000203166002900480601f016020809104026020016040519081016040528092919081815260200182805460018160011615610100020316600290048015610b185780601f10610aed57610100808354040283529160200191610b18565b820191906000526020600020905b815481529060010190602001808311610afb57829003601f168201915b50505050508152602001600282018054600181600116156101000203166002900480601f016020809104026020016040519081016040528092919081815260200182805460018160011615610100020316600290048015610bba5780601f10610b8f57610100808354040283529160200191610bba565b820191906000526020600020905b815481529060010190602001808311610b9d57829003601f168201915b505050505081525050905080602001518160400151826060015183608001518460a0015181915080905095509550955095509550509295509295909350565b828054600181600116156101000203166002900490600052602060002090601f016020900481019282601f10610c3a57805160ff1916838001178555610c68565b82800160010185558215610c68579182015b82811115610c67578251825591602001919060010190610c4c565b5b509050610c759190610d16565b5090565b60a060405190810160405280600063ffffffff168152602001600063ffffffff168152602001600063ffffffff168152602001600063ffffffff168152602001600063ffffffff1681525090565b60c060405190810160405280600063ffffffff168152602001600063ffffffff168152602001600063ffffffff168152602001600063ffffffff16815260200160608152602001606081525090565b610d3891905b80821115610d34576000816000905550600101610d1c565b5090565b9056fea165627a7a72305820043e4b65f3637321a247d6b97b4340f94c74587cda9419a4b63fc2af42b3364d0029",
  "source": "pragma solidity >=0.4.21 <0.6.0;\r\n\r\ncontract Farmer{\r\n\r\n\tstruct category{\r\n\t\tuint32 catId;\r\n\t\tuint32 amountSold;\r\n\t\tuint32 income;\r\n\t\tuint32 price;\r\n\t\tstring catName;\r\n\t\tstring cowsKind;\r\n\t}\r\n\r\n\tstruct milk{\r\n\t\tuint32 milkId;\r\n\t\tuint32 categoryId;\r\n\t\tuint32 quantity;\r\n\t\tuint32 sold;\r\n\t\tuint32 exportAt;\r\n\t}\r\n\r\n\tevent getCategoryId(\r\n\t    uint32 categoryId\r\n  \t);\r\n\r\n\tevent getMilkId(\r\n\t    uint32 milkId\r\n  \t);\r\n\r\n\tmapping(address => mapping(uint32 => category)) milkCategory;\r\n\t\r\n\tmapping(address => mapping(uint32 => milk)) milkInfo;\r\n\t \t\r\n    function addCategory (string calldata name, string calldata cow, uint32 income, uint32 price) external {\r\n        uint32 catId = uint32(now);\r\n    \tmilkCategory[msg.sender][catId] = category(catId,0,income,price,name,cow);\r\n    \temit getCategoryId(catId);\r\n    }\r\n    \r\n    function getCategory(address farm,uint32 catId) external view returns(uint32,uint32,uint32,string memory,string memory) {\r\n    \tcategory memory catInfo = milkCategory[farm][catId];\r\n    \treturn (catInfo.amountSold,catInfo.income,catInfo.price,catInfo.catName,catInfo.cowsKind);\r\n    }\r\n\r\n    function addMilkInfo(uint32 categoryId, uint32 quantity) external {\r\n    \tuint32 milkId = uint32(now);\r\n    \tmilkInfo[msg.sender][milkId] = milk(milkId,categoryId,quantity,0,0);\r\n    \temit getMilkId(milkId);\r\n    }\r\n\r\n    function getMilkInfo(address farm,uint32 milkId) external view returns(uint32 ,uint32 ,uint32 ,uint32 ,uint32) {\r\n    \tmilk memory infomation = milkInfo[farm][milkId];\r\n    \treturn (infomation.milkId,infomation.categoryId,infomation.quantity,infomation.sold,infomation.exportAt);\r\n    }\r\n\r\n}",
  "sourcePath": "D:/blockchain/daLatMilk/appCore/contracts/Farmer.sol",
  "compiler": {
    "name": "solc",
    "version": "0.5.0+commit.1d4f565a.Emscripten.clang"
  },
  "schemaVersion": "3.0.3",
  "updatedAt": "2019-04-11T07:54:58.172Z",
  "devdoc": {
    "methods": {}
  },
  "userdoc": {
    "methods": {}
  }
}